:020000041000EA
:1000000000B5324B212058609868022188439860DF
:10001000D860186158612E4B002199600221596106
:100020000121F02299502B49196001219960352056
:1000300000F044F80222904214D00621196600F024
:1000400034F8196E01211966002018661A6600F04E
:100050002CF8196E196E196E052000F02FF8012189
:100060000842F9D1002199601B49196000215960AB
:100070001A491B48016001219960EB211966A021F2
:10008000196600F012F800219960164914480160C1
:100090000121996001BC002800D000471248134993
:1000A000086003C880F30888084703B5996A0420EC
:1000B0000142FBD001200142F8D103BD02B5186610
:1000C0001866FFF7F2FF186E186E02BD00000240BE
:1000D000000000180000070000035F00212200005C
:1000E000F4000018222000A00001001008ED00E03C
:1000F00000000000000000000000000074B24E7A12
:1001000000200420F7010010C3010010C5010010F9
:10011000C1010010C1010010C1010010C101001097
:10012000C1010010C1010010C1010010C701001081
:10013000C1010010C1010010C9010010CB01001065
:10014000CD010010CD010010CD010010CD01001037
:10015000CD010010CD010010CD010010CD01001027
:10016000CD010010CD010010CD010010CD01001017
:10017000CD010010CD010010CD010010CD01001007
:10018000CD010010CD010010CD010010CD010010F7
:10019000CD010010CD010010CD010010CD010010E7
:1001A000CD010010CD010010CD010010CD010010D7
:1001B000CD010010CD010010CD010010CD010010C7
:1001C00000BE00BE00BE00BE00BE00BEEFF3058054
:1001D000103800BEF2EB887190070510B0070510CB
:1001E0003802001090A31AE71E481F49086006C88D
:1001F00081F3088810471D480068002801D019487D
:10020000F3E70DA40ECC002902D000F012F8F9E7B4
:100210001749184A002000E001C19142FCD116495B
:100220008847164988471649884700BEFDE701C937
:1002300001C29A42FBD37047B0070510E0000020CE
:100240007012002040190510000004200000042056
:1002500040190510001004200010042000000000C8
:10026000704700000000000008ED00E0000000D032
:100270007012002044DE0020993B0110310500106F
:10028000913B0110F8B5C0460448054B10B58342B8
:1002900003D0044B002B00D0984710BD70120020F3
:1002A000701200200000000006480749091A8B1050
:1002B000C90FC91810B5491003D0044B002B00D04A
:1002C000984710BD7012002070120020000000003E
:1002D00010B5074C2378002B09D1FFF7D5FF054B4C
:1002E000002B02D0044800E000BF0123237010BDA2
:1002F000481500200000000090690110054B10B562
:10030000002B03D00449054800E000BFFFF7CCFFF5
:1003100010BDC046000000004C150020906901107F
:1003200070B5141E09D052686189154813F03EFE5D
:10033000200003F005FB002070BD124813F0AEFD55
:10034000114D28680028F6D0002104F0C9FA286869
:10035000002104F0D7FA2868002104F0C5FA002231
:100360002868002104F0EAFA0021286804F0D8FA8D
:10037000286804F0EBFE05482C6013F08FFDDAE7E7
:10038000C46901109069011048200020B069011073
:1003900070B50D00141E14D11C4813F07FFD1C4BCA
:1003A0001C4A1D491D481D6013F000FE28001C4911
:1003B00004F09AFA022228001A4904F0BFFA200039
:1003C00070BD1100184813F0F1FD114D2868002888
:1003D000F5D0002104F084FA2868002104F092FA94
:1003E0002868002104F080FA00222868002104F027
:1003F000A5FA0021286804F093FA286804F0A6FE04
:1004000000230A482B6013F049FDD8E7F469011076
:1004100048200020390500000C6A01101C6A0110F8
:100420002103001031040010DC690110B0690110D3
:1004300070B52A4E0D00336888B0002B43D0E02100
:10044000274AC901136880240B40264964000B60C9
:100450000421254B196013682342FCD053682021E6
:100460001B04224A1B0C684613F054FB684616F026
:1004700055F9694682B20123280006F0E3FE011E09
:1004800024D01B4813F092FD306800281BD00021B7
:1004900004F026FA0021306804F034FA00213068B4
:1004A00004F022FA00220021306804F047FA00210B
:1004B000306804F035FA306804F048FE00230D4837
:1004C000336013F0EBFC002008B070BD280007F08B
:1004D000D7FC6946084813F069FDF4E7482000207E
:1004E00000C0044000D0044000E00440406A011015
:1004F000606A0110B0690110546A011010B582B031
:1005000004F05CFC064C01A9206006480CF076F86B
:10051000054B2068054A01A903F032FE02B010BD68
:10052000482000200C6A01109103001039050000DA
:10053000F0B5C64600B513F061FC0CF0E3FA041EFA
:100540004DD10CF07BFA284813F0A8FC274E284D1B
:10055000284F32002900380013F028FD264B98461A
:1005600031002800254B264A0CF076FA002819D0D5
:10057000013405222100404613F018FD3200290005
:10058000380013F013FD1F4801F0FAF9052CE7D1EC
:1005900005211D4813F00AFD0CF0EEFA012080BC85
:1005A000B846F0BD194813F079FC15F0DDFF1F21A6
:1005B0001A2001F0EFFE00221A20110001F004FFC2
:1005C00000211A2001F086FF1149124A124813F047
:1005D000EDFCFFF793FF0B4801F0D2F9FBE70F4862
:1005E00013F05CFCDAE7C046986A0110B06A0110AB
:1005F000BC6A0110D46A0110406B01101027000082
:100600000400400088130000686B01100C6B01109F
:100610000C6A011039050000206B01107C6A011082
:1006200010B508F0BDF810BDF8B501230B72040039
:1006300008F0EAF80500431C0BD1104B1868596804
:100640000F4B22689860D9601900200052699047CA
:10065000F8BD01F033FAFA2206000F00002328004B
:100660000021920011F06AFE8023801979411B0657
:100670009942E5D3012003494042E1E72089011076
:1006800050110020FFFFFF7F70B5094D04002B784B
:10069000002B08D00123074920000B722368DB6977
:1006A0009847012070BD02F005F801232B70F1E797
:1006B00035DE00206811002010B5040003680449ED
:1006C0009B6998472368200002491B6A984710BD20
:1006D0005011002068110020002070477047C0466C
:1006E00010B501F0EBF9002905D0FA2200239200A1
:1006F00011F0F0FA10BDFA21890011F0ADFAF9E716
:1007000083680830002B04D107E018001B68002B19
:1007100003D09942F9D1002003E0002301600120B9
:100720000B6070478368002B08D08B4202D107E032
:10073000994206D018001B68002BF9D100207047A1
:1007400008300B6803600120F9E7C04643680430B5
:10075000002B04D107E018001B68002B03D099423E
:10076000F9D1002003E00023016001200B607047F5
:100770004368002B08D08B4202D107E0994206D093
:1007800018001B68002BF9D10020704704300B685B
:1007900003600120F9E7C046F0B55746DE464646FD
:1007A000C0B53E4B82B05C681B68009301948368BF
:1007B0008246002B2CD0082353449B4601F07EF93F
:1007C00053469B6804000D005F46002B20D000229A
:1007D0001E0094469846B268F36820002900801AEB
:1007E0009941002902DB14001D00BC463700366821
:1007F000002EF0D162464346002A48D01168504688
:100800000B6813604B68984753469B68002BD5D103
:1008100053465C68002C29D000255646237A002BCD
:1008200031D0210063682572300098472468002C7D
:10083000F4D1B168B246002918D0009C019D0E0089
:1008400003E004000D00002E0ED033002200986853
:10085000D9682B00121A8B413668002BF1DCF2D1DB
:10086000002AEED1002EF0D100940195009B019C4E
:100870005246180021001361546102B0E0BCBB462F
:10088000B246A846F0BD2468002CC7D1D1E71900B4
:1008900053465C68002CBFD1CFE7C04620890110C9
:1008A0008023DB051868000F7047C0460FB400B501
:1008B000084883B013F0F2FA049B002B07D005A977
:1008C0001800019113F04AF9034813F0E7FA0120E8
:1008D00013F05CF9AC6B0110646B011070B50F4C38
:1008E0000F4D104A24184D41A900A00F0843A90F2D
:1008F00069400D4B604011F021FD4A01C30E1343C6
:10090000CA0E58405140094B094A11F017FD4A00E0
:10091000C30F1343CA0F5840514070BD157C4A7F26
:10092000B979379EB9E5E41C6D4758BFBB49D094EF
:10093000EB113113F0B504684568060023002A0066
:10094000C6468068F16803430A4300B5134304D1E7
:1009500001F0B4F803000B43FAD02A06230A6040E2
:10096000270613432A0A3A43070CBC4669404B400A
:10097000984663460F041F43424003045A404346CF
:100980007B4032607360C20E4B011343C90E4001BD
:100990000843B360A10FAB000B43A20012196B41D7
:1009A000F060D901500E0843D201590E11430C00DA
:1009B00005004B0FC1001943E0000019694180BCDC
:1009C000B846F0BDF0B5DE4657464E464546E0B562
:1009D000BC4991B008910978002900D1E5E00CAB41
:1009E0009846B94BB94C0293B94BBA4E05931022B5
:1009F0000599404611F0FEFCB74B06931B78DBB21D
:100A0000079301F05BF8FFF769FF0C9B43400893E5
:100A100043465B684B400993B04B9B69DB0433D57D
:100A2000AF4BDA6BE0231340402B2DD0EFF305835F
:100A30009A46AC4B2768994600239B46330056469E
:100A400065689A4638002900002E1AD001F040F857
:100A5000EFF3108272B64B461B68002BFBD0BFF33E
:100A60005F8F2368BB4212D0BFF35F8F4B4659465E
:100A7000196082F310882768656838002900002E05
:100A8000E4D100F011FFE3E710F0DAFFCEE763688E
:100A9000AB42E9D1914B1500DF6901F00FF80A2252
:100AA0000023801859410B00802156460200090698
:100AB0008B4202D301228C4B524201200CC432687B
:100AC000736892185B4138401043002400920193F0
:100AD00030607360BFF35F8F824A146085F31088C3
:100AE0000199FFF7FBFE43469B6842465840434648
:100AF000DB6890604B40D3607C4A029B94461B7835
:100B00007B4ADB006344986890424CD00021FFF799
:100B1000E5FE089B43400C93099B4B40190043465C
:100B20005960EFF3108572B66E4A1368002BFCD043
:100B3000BFF35F8F069B079A1B78934214D00598EA
:100B40000C9A036841685A4043465B680C924246DF
:100B50004B40536092688368C1685A404346DB68E3
:100B60004B4041468A60CB604046FFF7E3FE1022CF
:100B700006000C000598414611F03CFC069A1378DB
:100B80000133DBB21370BFF35F8F0022554B1A6045
:100B900085F310883000210011B0F0BCBB46B2468E
:100BA000A946A046F0BD9C60B0E7524D524CAC4601
:100BB00020686168514DA246A84600920193850DB8
:100BC0008F0286022F4334003D0024184D41A30EAE
:100BD0009946AB0101934B46019A1A43A301009336
:100BE0000192009C019D241A8D412000644608CC8E
:100BF000290002930023A4460393029C039D00193D
:100C00006941C445DBD1544620606160FFF766FE50
:100C10000CAB98460C9B4340029343465B680AA882
:100C20004B40059300F02CF90A980B99FFF756FEFC
:100C300043469B68434006934346DB684B4007931B
:100C4000264B9B69DB0400D4F4E0254BDA6BE023F0
:100C50001340402B00D1EDE0EFF3058300249A46CA
:100C600000234025009301941E4B2E0099465546C3
:100C7000C346164C0023B04627682E0065689A4686
:100C800038002900002E1AD000F022FFEFF3108266
:100C900072B64B461B68002BFBD0BFF35F8F2368F7
:100CA000BB422DD0BFF35F8F4B465146196082F394
:100CB00010882768656838002900002EE4D100F00C
:100CC000F3FDE3E73FDE002032DE00204014002089
:100CD000D0000020C000002033DE002000000640CD
:100CE00000800040300100D0FFFFFF7F0000034084
:100CF000FFFFFF00001C0420C8000020002004208B
:100D00006368AB42CED1350046469046009A019BBF
:100D100010001900801859414B4BDA690123134028
:100D200003430093019100F0C9FE0A2200238018BA
:100D300059410B008021020009068B4202D3012297
:100D4000424B524222606360012E5ED100980199AD
:100D500035003F4E474630607160D846BFF35F8F25
:100D60003C4B994600234A46136087F31088FFF7EF
:100D7000B5FD029B43400C93059B4B4019005B461D
:100D8000596000F09BFEFFF7A9FD069B4340180049
:100D90005B469860079B4B4019005B46D960EFF3B8
:100DA000108772B64B461B68002BFBD0BFF35F8FDA
:100DB000089B1B78002B31D1274BDA681F2A3CD0C7
:100DC0005A691F2A3AD0DA691F2A39D05B6A03258B
:100DD0001F2B33D010F034FEFF25FF231F4AED00F8
:100DE00013701F4B02929C46052365446B6040467E
:100DF000FFF7A0FD1B4B102218004146059311F090
:100E0000F9FA0123089A13700CE0BFF35F8F0023F7
:100E10004A46136088F31088013E2BE70F4B02937C
:100E2000104B0593BFF35F8F00220A4B1A6087F3C4
:100E30001088DCE510F004FE0EE70025EBB2CDE7EC
:100E40000225EBB2CAE7C04600000640FFFFFF7F65
:100E5000C0000020300100D00000034032DE00203E
:100E600008000340D000002010B5FFF7ABFD10BD17
:100E700010B5024800F0E0F810BDC046C0DC00200C
:100E800010B50822014911F0B5FA10BDC0DC0020F0
:100E900030B54B1E012900D1A7E0664A11780D0933
:100EA0002C0030349F2900D9A2E00470012B00D11E
:100EB000BEE00F21147821400C003034092900D9FC
:100EC00098E04470022B00D1B2E054782509290043
:100ED00030319F2C00D990E08170032B00D1A7E026
:100EE0000F2121400C003034092900D987E0C4705B
:100EF000042B00D19CE094782509290030319F2CE7
:100F000000D97FE00171052B00D191E00F21214034
:100F10000C003034092900D976E04471062B00D149
:100F200086E0D4782509290030319F2C00D96EE065
:100F30008171072B00D17BE00F2121400C00303460
:100F4000092966D8C471082B00D171E014792509EC
:100F5000290030319F2C5FD80172092B68D00F21F6
:100F600021400C003034092958D844720A2B5FD034
:100F700054792509290030319F2C52D881720B2BCE
:100F800056D00F2121400C00303409294BD8C472AF
:100F90000C2B4DD094792509290030319F2C00D994
:100FA000073101730D2B43D00F2121400C00303449
:100FB000092901D937310C0044730E2B38D0D1796F
:100FC0000C09220030329F2900D9073282730F2B7F
:100FD0002ED00F220A4011003731092A01D83032B1
:100FE0001100C173102B23D010300023037030BDCB
:100FF00007345AE737310C0063E707316CE73731C4
:101000000C0074E707317DE737310C0085E70731C5
:101010008EE737310C0095E707319DE737310C003B
:10102000A3E70731AAE737310C00C4720C2BB1D10A
:10103000C018DAE7C0DC002010B588B004000D222B
:101040000021684611F0D0F90D22002104A811F00A
:10105000CBF94B236A466846137004A90D2215F09C
:10106000FBFB152108222000694411F0C3F908B0E8
:1010700010BDC046EFF3108072B6034A1368002B10
:10108000FCD0BFF35F8F70472C0100D0BFF35F8FA0
:101090000022024B1A6080F3108870472C0100D0A8
:1010A00070B5EFF3108C72B60D4D2B68002BFCD091
:1010B000BFF35F8F0724CB08C618C05C01230C4028
:1010C000A3401C000440034207D118433070BFF313
:1010D0005F8F2C608CF3108870BD1000FFF7E6FB6B
:1010E0002C0100D0F8B54746CE46884680B5EFF3D0
:1010F000108C72B6214D2C68002CFCD0BFF35F8F92
:101100009A422CD8D4080727055D061901241740F8
:10111000BC402C421FD007210127894609E0D40892
:10112000055D06194C4639001440A1400C002942C7
:1011300011D001329342F2D201204042BFF35F8FBF
:1011400000220E4B1A608CF3108800280FDBC0BC05
:10115000B946B046F8BD254310003570EEE7BFF341
:101160005F8F00232B608CF31088012040424346A0
:10117000002BECD00898FFF799FBC0462C0100D05B
:1011800030B5EFF3108C72B60A4C2368002BFCD0FC
:10119000BFF35F8F072301220B409A40CD08435DC8
:1011A00093434355BFF35F8F002323608CF3108874
:1011B00030BDC0462C0100D0044A1078431CDBB27D
:1011C000172B00D9102313707047C04678110020E8
:1011D00010B5064B064C82B00100009318221F2365
:1011E0002000FFF77FFF02B010BDC046BC6B0110AE
:1011F0003C2000200021044B044ABFF35F8F02C350
:101200009342FAD17047C046000100D0800100D05F
:10121000142310B50100188804331B88984710BDAB
:10122000162310B50100188802331B88984710BD9B
:10123000F8B54746CE4680B50F1E19D014239946FF
:10124000043304000025012698464B46188843467F
:1012500021681B88984701C4431E984101354042CC
:101260000640AF42F1D13000C0BCB946B046F8BD2F
:101270000126F8E7142370B50400188804331B888E
:101280000D000549984703000020002C01DB0130C8
:10129000A04029009847C046554200000A4B1968F3
:1012A000EFF3108072B60A68002AFCD0BFF35F8F9C
:1012B0001B68BFF35F8F00221A6080F3108840BF65
:1012C000002000217047C046D0DD0020F0B5DE468A
:1012D00057464E464546E0B583B0EFF305820323FB
:1012E0001340B54A990052580091904601229A4005
:1012F000B24B93461A60B24B01932EE043469B8853
:101300001BB2002B00DB99E043469B79002B00D0F9
:10131000DDE0434608241C5F002C00DA06E143466A
:101320005A6963001B19DB00D3189D68DC686B1CCD
:1013300000D107E1A34B00999C4661449A6A0B696E
:10134000A81A9B1A984200D20D619E4800F0AEFB8D
:101350008C4200DDEAE000D126E15B469948436318
:10136000434608229B5E9946002BC7DB42465269E2
:101370005B0092464B44DB009A4453469E68DF680C
:1013800000F094FB8F42B9DC00D100E1002F00DABD
:10139000E1E05246534654691B69019A934200D1D9
:1013A000D4E0414652460820085E528800042100DD
:1013B0001043984704000D0023002B4300D1CAE0DE
:1013C000002D00DBE7E030003900001BA941534647
:1013D0009860D96000229A5E002A8FDB43465D69DF
:1013E00053009C18E4002C19A768E4688C4200DDC7
:1013F00084E702D1874200D980E746463281083629
:101400000DE08C4200D1D3E01E000023F25E002AE2
:101410000ADB53009C18E4002C19A768E4689B18A9
:10142000DB00EB188C42ECDD53461A804B463380D0
:1014300043469B881BB2002B00DA65E743461A69D6
:10144000EFF3108172B61368002BFCD0BFF35F8FEF
:1014500043469E88012342465B42938036B213691D
:10146000BFF35F8F00221A6081F31088002E00DA2C
:101470004AE743465D69083342469C467700BF19F8
:10148000FF00EF19BB68604698460823D15E92467C
:10149000FC68002907DA0EE0A2424FD018000023B2
:1014A000C15E002906DB4B005B18DB00EB18DA6835
:1014B000A242F1DD524606800023FE5E3980002EF6
:1014C000DCDA904643469B79002B00D121E70023CC
:1014D00042469371434646460821595E08364B1CE6
:1014E00024D047468946556902E006004B1C18D0B7
:1014F0004B005B18DB00E8180A008C46E95E438865
:101500001BB2002BF1DA01235B42DC178360C4605D
:101510004A4503D031803B8903803A81E1464B1C28
:10152000E6D14C46B846002C00DBF8E640BF03B0DD
:10153000F0BCBB46B246A946A046F0BD9A684245FB
:10154000ACD9B7E7631C00D0F4E6FEE620002369BF
:101550009847002825D1534642461B8813811269BB
:10156000EFF3108372B611680029FCD0BFF35F8FD0
:101570004246514652880A80424649465180126985
:10158000BFF35F8F0021116083F31088B6E68642B7
:1015900000D8FBE6B2E60B4800F088FA0019694172
:1015A00015E76568246807E7854200D8D5E6BDE7FA
:1015B000874200D828E737E7E0CC00203C700540A0
:1015C000CD1200100040054070B52E4C2569002D4D
:1015D00004D00A212C4800F085FD70BD2B4E03215C
:1015E000300000F059FAE660FFF7E6FD284B0322D1
:1015F0009C46D02322701B061B6801216370254B7B
:101600006044A3600F23800020610220638063692F
:101610004942A18019800231198647311D835852F1
:1016200018315A5275325C39995218320131995237
:101630001832013199521832013199520835183255
:101640009D52023118329952183201319952183292
:10165000013199521832013199521832013199529F
:101660001832013199520C4B0C49DC600130356263
:1016700000F08CFA0121032000F04CFA084B1D60A9
:10168000A7E7C0467C110020D0DD002000400540C7
:1016900040000034FFFF1000E0CC0020CD1200100D
:1016A00038600540004870477C110020F8B51F00E5
:1016B00008AB1B7804001600002B08D100F0FEF9DF
:1016C00032003B00121A8B41002B00DA53E02269F2
:1016D000EFF3108072B61368002BFCD0BFF35F8F5E
:1016E0000223E15E63694A005218D2009B18002968
:1016F00037DB1A8862802269BFF35F8F002515608F
:1017000080F31088069A9E60DF601A61079A5A611A
:101710005A8801325204520C101C002A1FD082B287
:101720005880080410432669EFF3108772B63268B8
:10173000002AFCD0BFF35F8FA2881A80A1802369A2
:10174000BFF35F8F00221A6087F310880B4923785C
:101750008C4601329A40E36863441A60F8BD012068
:10176000DDE72369BFF35F8F00221A6080F31088E2
:1017700001204042F2E70020F0E7C0463C20000094
:1017800070B501000469EFF3108C72B62068002870
:10179000FCD0BFF35F8F02200D5E4C6968004019DA
:1017A000C0002418002D37DB208848800869BFF36B
:1017B0005F8F002606608CF31088E36063880498CE
:1017C000013320615B0405985B0CA26060611A1C08
:1017D000002B1FD093B22804628018430A69EFF3EC
:1017E000108C72B61368002BFCD0BFF35F8F8B8810
:1017F00023808D800B69BFF35F8F00221A608CF30A
:1018000010880B7801329A40CB6808498C466344B3
:101810001A6070BD0122DDE70B69BFF35F8F002204
:101820001A608CF3108801204042F2E73C2000004F
:1018300010B543890A1493421ADD53009B1842697C
:10184000DB00D3180469EFF3108C72B62268002A0B
:10185000FCD0BFF35F8F5A88090494B2090C8A4206
:1018600008D00369BFF35F8F00221A608CF31088E1
:10187000002010BD8022120214435C800123026903
:101880008371BFF35F8F002111608CF310880449CE
:1018900002788C469340C268012062441360E8E7F6
:1018A0003C20000040787047F0B504000D0006268B
:1018B0007642F717C64636196F4100B582B08F429F
:1018C00014D811D000F0FAF832003B00121A8B4104
:1018D000002B17DC002B47D02000290000F0F8F87F
:1018E00002B080BCB846F0BD8642EBD9002200238E
:1018F00016001F0000F0E2F832003B00121A8B4184
:10190000002BE7DD00F0DAF832003B00121A8B41C1
:10191000002B0ADB00230193154B3200009315487E
:101920003B00FFF72DFF0028D6DB00239C46B04686
:10193000114A124E736A9F4204D8B16A8845CBD9C6
:101940009F42C9D11168EFF3108072B60B68002B6B
:10195000FCD0BFF35F8F1368BFF35F8F61461960E0
:1019600080F3108820BFE5E7002AB5D0CAE7C0465B
:101970009D1200107C110020D0DD002000400540A9
:1019800070B5060000F09AF8FA2204000D0000235A
:1019900030000021920010F0D1FC80230019694131
:1019A0001B06994202D3012002494042FFF77CFF07
:1019B00070BDC046FFFFFF7FF0B5CE46474680B5FD
:1019C00004000D0083B0EFF305878846002F3ED159
:1019D0002E4EA1463378F06804339B00816A1B5871
:1019E000601A5B1A98420ED320BF294900204B6A27
:1019F000AB4203D38A6A0130944231D803B0C0BCF1
:101A0000B946B046F0BD00F059F822002B00121A7A
:101A10008B41002B2FDB1F4B2200009330002B004B
:101A20000197FFF7ADFE011E25DD194B5A6AAA4248
:101A30001BD220BF3000FFF7FBFE154A0020536A7F
:101A40004345DBD3926A01309145D7D908E010496C
:101A500000204B6AAB42D1D38A6A0130A242CDD278
:101A60005B1B5A1E9341D8B2C8E79B6A9C42E1D9DE
:101A7000AA42DFD1DDE7064A0020536A4345BDD3C1
:101A8000926A01209145B9D9EAE7C0467C1100204D
:101A9000004005409D12001010B5024A0248FFF7B1
:101AA000FFFA10BDD86B0110402000200300416AEE
:101AB0000A00986A596A8A42FAD17047034B596AF8
:101AC0000A00986A596A9142FAD17047004005406D
:101AD000064A536A9942FCD807D1044B02E05A6A7D
:101AE000914202D19A6A8242F9D370470040054080
:101AF000054B064A1360064A136053609360D36037
:101B000013615361936170478080808000E400E03E
:101B100004E400E01F2318401E3B8340002905D049
:101B2000C021044A49005350136070478022014984
:101B30008B50FAE700E100E001228240034B1B6872
:101B400013405A1E9341D8B27047C04600E100E0EE
:101B500001238340014A13607047C04600E200E061
:101B6000084B10309B688000C358002B07D0064AF2
:101B700000209B1A2F229A424041C0B27047002099
:101B8000FCE7C04600ED00E09411002070B50D00A8
:101B9000EFF3108672B60F4A1368002BFCD0BFF328
:101BA0005F8F0D4B10309B6884001B590B4A93428A
:101BB00003D09D4201D00FF043FF074B9B681D519E
:101BC000BFF35F8FBFF35F8F0022024B1A6086F373
:101BD000108870BD240100D000ED00E0CD010010A0
:101BE000F0B557464E46DE464546E0B585B00600A0
:101BF00000911700EFF3108B72B66A4A1368002B3E
:101C0000FCD0BFF35F8F0025674B5D579A46002DD0
:101C100000DAA9E06B00654C01935B199B009846C4
:101C2000A146C1444B4652469B7910361370604B17
:101C3000B6009B6899590B1B2F2B33D95D4B9942EA
:101C400000D0ACE0019B42469C465B4B6544AD0036
:101C500063535A4B0232A218043B9B1A1B05584A85
:101C60005B0D651913436B80564B0121AB80FF233D
:101C7000AB71009BEF71AB604B460B4319004C4BB3
:101C80009B689951BFF35F8FBFF35F8F0022454B75
:101C90001A608BF3108805B0F0BCBB46B246A9466B
:101CA000A046F0BD01200A008243D3798C46BB4296
:101CB00031D84546130044491B1B5B415943090D6C
:101CC0003D4B63533D4B02356519043B5B1B1B05C4
:101CD0003B4D5B0D2B43AA464D466B800425AC461D
:101CE0005546E044131F44441B1B1B055B0D1D435D
:101CF0004B46997100999D8099604946DF71334B3D
:101D000001431360BBE75800C01880002018C17958
:101D1000B9422FD902000623D356002BF3DA0293DF
:101D20002B4B61460393131D9A4604235B429C464A
:101D3000E14450464B461B1A1B055B0D9C46204B4D
:101D4000957198466346404603439380019B5A1918
:101D50009200039BA418A380029B1C4AA371009BC2
:101D60002260E771A3608AE70FF06AFE0025534600
:101D70005D574FE7908802934005131D9A4603155F
:101D800061469C464046D444634604302018181AE5
:101D9000E0230005400D1B0218430390C5E70FF038
:101DA0004FFE4FE7240100D038DE002094110020C0
:101DB00000ED00E0CD01001000A1FFFFC4110020E4
:101DC00000E0FFFF01BDFFFFAAAA00000148804715
:101DD00001BD0000F0B5DE4657464E464546E0B52B
:101DE0000C0083B0EFF3108872B6634A1368002BBF
:101DF000FCD0BFF35F8F614B61499A6803001033D9
:101E00009F00D55900938D4243D0A54254D05D4EDA
:101E1000AA1B2F2A3DD85C4B9C461B689A4601237F
:101E20001A0099468240534613401F2201934B46A5
:101E3000024093409A468022634650469850BFF332
:101E40005F8FEFF305839B46002B37D0009B5B45EC
:101E500001D00FF0F5FD2A004B469A43906884426A
:101E600008D177E04B005B189B00F3189868844218
:101E700036D01A00062151560029F3DA844255D093
:101E8000019B002B27D0C02251463F4B5200995056
:101E900019603A4B9B68DD51BFF35F8FBFF35F8FD3
:101EA0000022354B1A6088F3108803B0F0BCBB46A3
:101EB000B246A946A046F0BD0D00EAE72A004B460F
:101EC0009A4390688442D5D106201056130000280A
:101ED0000ADA0D0032E0802351462B4AD150D8E770
:101EE00006201856002822DB4200111889007418B9
:101EF0008946A1689960E179D97106216156997185
:101F0000002925DBA488F11A640524154C4409191D
:101F1000E0240905490D24022143998013181B4A26
:101F20009B001178F31899711070A9E713005946B6
:101F3000002914D1FF3191711549918013490A7814
:101F40009A71144A9B1B5B415A43120D0A7097E722
:101F50001149E2E70620105613000028C4DA0F4AA0
:101F60000F49D21A083A5002400D014399800D4999
:101F700052080A43DA8083E7240100D000ED00E034
:101F8000CD0100109411002000E100E038DE0020B7
:101F900001BDFFFFAAAA000001BD0000CE11002074
:101FA00000F0FFFF00F8FFFF10B5830804000320D6
:101FB0002040FF24054AC0009446844081409B0095
:101FC00063441A68A2430A431A6010BD00E400E0AB
:101FD00070B501240443EFF30581EFF3108C72B662
:101FE000214A1368002BFCD0BFF35F8F1F4B050005
:101FF0001F4AED1A6D416A43120D1E4D8900AE68ED
:1020000052B27658A6421CD00621595691421CD095
:1020100012215956914222D01E215956914220D068
:102020002A2159560324914210D0134B19781A7063
:102030008171BFF35F8F00220B4B1A608CF3108805
:1020400070BDAB680D4C5C50EFE7002461000919CE
:1020500089005B18FF21997109499980E5E70124FE
:10206000F4E70224F2E7C046240100D094110020D6
:10207000AAAA000000ED00E038DE0020CD0100102B
:1020800001BDFFFF1F2110B5091A0248FFF778F8BC
:1020900010BDC04643DE002010B5084B084C82B08E
:1020A00001000093002205232000FFF71BF8002801
:1020B00001DB1F23181A02B010BDC046FC6B0110D3
:1020C00043DE002070B504000E001500FFF774F821
:1020D0000100200000F006F8A680E580BFF35F8FC6
:1020E00070BDC046024B9C46614489000160704748
:1020F0004000003470B5114C114DAC420FD2FF2698
:102100002368002B0CD0FFF757F801002000FFF7E1
:10211000E9FFA680BFF35F8F0834AC42F0D370BDF7
:10212000FFF74AF801002000FFF7DCFF2671BFF33C
:102130005F8F0834AC42E3D3F1E7C0466812002059
:102140007012002010B50400FFF736F801002000DF
:10215000FFF7C8FFFF232371BFF35F8F10BDC04699
:1021600010B50400FFF728F801002000FFF7BAFFC0
:10217000FF23A380BFF35F8F10BDC04610B50400DE
:102180000120FFF725F8034BC3189B002360BFF322
:102190005F8F10BD40000034034B9C4661448900B2
:1021A0000160BFF35F8F704740000034F8B5DE4632
:1021B0004E4657464546E0B58B4605000A9918003D
:1021C00016000FF049FD0A9B6C001F02324B641988
:1021D0009C46A4006444636881469F4200D96760BE
:1021E0002B1FDBB29846012B30D9C02380229B01E4
:1021F000E31812011A60294BAD0059599A4600297B
:102200001BD17301E026226853401E4080234246C2
:102210005B01E3181E60012A30D9802380229B01D4
:10222000E31812011A6053464A4667605A51F0BCDF
:10223000BB46B246A946A046F8BD58690FF00CFD52
:10224000013043001B18033BFDD2DAE75B46012B4C
:10225000CBD1C02303229B01E3181A60023AA36882
:102260001A42FCD07301E0262268AD0053401E40A4
:1022700080230A4A5B019246E3181E605A46216891
:10228000514003220A401A6001225B469A40A3682B
:102290001A42FCD0C1E7C046008000404C2000201C
:1022A000F0B546464F46D646C0B51F00344B4400F5
:1022B0009C462418A4006444636888461600FF2BDB
:1022C00002D880235B006360031FDBB29A46012BB8
:1022D00030D9C02380229B01E31812011A60294BD8
:1022E00085005959994600291BD17301E0262268BF
:1022F00053401E40802352465B01E3181E60012AB2
:1023000030D9802380229B01E31812011A608023B8
:102310005B0063604B465F51E0BCBA46B146A846DD
:10232000F0BD58690FF098FC013043001B18033BC7
:10233000FDD2DAE74346012BCBD1C02303229B0118
:10234000E3181A60023AA3681A42FCD07301E0262F
:102350002268850053401E4080230A4A5B01914653
:10236000E3181E6042462168514003220A401A6069
:10237000012342469340A2681342FCD0C1E7C04605
:10238000008000404C200020014B8000C058704766
:102390004C200020094A83009A1810B51468402286
:1023A000544080322240064CC000A44663441A6068
:1023B000044B9C466044416010BDC04604C00140CF
:1023C00004D0014000400140074B8000C3181B6847
:1023D000C90092000A435A400C231340034A944612
:1023E000604403607047C04604C0014004D001400F
:1023F0008000002905D0064B9C4602236044036000
:102400007047044B9C46022360440360F8E7C046D3
:1024100004E0014004F00140D0231B061B6830B5E6
:102420000500584243412F205B4283430E48EC088D
:102430008446072028408000814020000B4D3C301E
:1024400063448000A40041511B19002A05D080225A
:10245000920194466344196030BDC02292019446B3
:1024600063441960F8E7C046304101400040014034
:10247000D023F0B5C6461B0698461B680C4F9B0040
:102480001600FA5804000D0000B5104209D12900C9
:1024900014430D203200FC50FFF7A2FB80BCB8466D
:1024A000F0BD0FF0CDFA43461B689B00FA58EEE7EB
:1024B000ACDC002010B504000D20FFF78BFCD0230E
:1024C0001B061B6802499B005A58A2435A5010BD74
:1024D000ACDC00208000002905D0064B9C46402340
:1024E000604403607047044B9C4640236044036093
:1024F000F8E7C04604E0014004F001400123D02287
:102500008340120693629361094A83009A18116806
:102510004022514080320A400649C0008C46634444
:102520001A60054B9C460523604443607047C046D3
:1025300004C0014004D0014000400140F8B504004F
:1025400021481E0017000D000FF086FB0100380027
:102550000FF082FB069B36041B031E432368002BEF
:1025600020DB1A4B1A49E3185A1E9341802292012C
:1025700094465B421B0B174A1B0363441360164AC5
:1025800013601F000A689743FBD1144B2560E218C3
:102590002123A06013602368002BFCDA0823E66087
:1025A0001360F8BD3F2322681340AB42D9D1A36822
:1025B0001B051B0D8342D4D1EE22E368D2021340E7
:1025C000B342CED1EDE7C046001BB7000040FDBFCF
:1025D00008C0004000E0004000F00040043000006F
:1025E00010B580241C4BE4051C6000281AD0012380
:1025F0001A4C18431A4BDC611A4C44401C62596255
:1026000098628021144BC905196017481749086062
:10261000E021C9041960002A07D18022144B120658
:102620001A6010BD0E4BD861EBE753019B1A9B005B
:102630009A18802312015B049A4209D213000D49B3
:102640000B60074B5A608022094BD2051A60E8E7FD
:10265000094B1A00F3E7C04600B00540D3C007B0ED
:10266000008005402D3FF84FFCFF0100082001408D
:1026700000A0054048330020FFFFFF008023024AEE
:102680009B000B43D362704700800540AA23064A93
:102690001B0113602F230549D360054B1960536854
:1026A000002BFCDA7047C0460040024000B0FA0040
:1026B0000060024010B501F03FFC00F059FB00F053
:1026C00021FD00F0C5FD06F0B3F801F0C3FC00F0F9
:1026D00085F906F01FF810BD40BA80B27047C046B9
:1026E00000BA7047F0B5C646584D04002B688846BE
:1026F00000B5002B03D02A7A824200D17CE0544EF0
:102700002701EB68002B02D02A7DA2426AD0AB6978
:10271000002B03D02022AA5CA24259D06B6A002B66
:1027200003D02C22AA5CA2422CD03B191B01F31827
:10273000DB7B002C35D0B27A022A68D0012C35D050
:102740008D225200B25C022A00D172E0022C31D0FC
:10275000404AB25C022A00D172E0032C2AD1032B3A
:102760000DD83D4D9B00585906F0BCFB00223F1987
:102770003F01F719FB7B9B005A510423FB7380BC7C
:10278000B846F0BD3819000110304146AA6A301829
:10279000984700236B623B191B01F318DB7B002C6D
:1027A000C9D18D225200B25C022A3BD0294AB25CC8
:1027B000022A32D0294AB25C022AD0D1284AB25C1D
:1027C0009A42CCD104223B191B01F318DA73D6E7E5
:1027D0003819000110304146EA6930189847002343
:1027E000AB619BE738190001103041462A69301867
:1027F00098470023EB608AE707013818144E000160
:1028000010306A683018984700232B6079E7F27B14
:102810009A42D7D0012C93D1C8E7124AB25C9A42AF
:10282000C8D1CFE72022FF32B25C9A4200D08FE7B6
:10283000C8E72022FF32B25C9A4200D086E7C1E7A7
:10284000084AB25C9A4200D087E7BBE7942A00208E
:10285000CC2A00202A020000842A00203A0300002B
:102860003F0300002F020000564BF0B54546DE4600
:1028700057464E4698460301E0B59B461D18434611
:102880002D015E19F37A070089B0012B00D996E07B
:102890004D4A9B00D4580192002C00D185E01035A0
:1028A0004544280013F03AFFA022123081B2920072
:1028B000362000F0EFFE8146002869D005AC0C22DE
:1028C000002120000FF090FD3089FFF705FF012364
:1028D0002080A3700C22FF3321004846A38001F022
:1028E00091F93A4B0C269A464346013D02970393D1
:1028F0006A786F1C3B0000242E2A07D15AE05A78D0
:102900000134E4B2591C2E2A49D00B00002AF6D11A
:10291000DA1B92B290461D002200B218524534DCF8
:1029200022003100484601F027FA731C9BB2A4191B
:1029300042463900484601F0A1F9A4B22B78661C42
:10294000B6B2002BD4D1039B0022310048469846F2
:10295000029F01F011FA1E4B02340422049304A9D1
:10296000A3B2484601F08AF93B0001995B448C46CA
:102970001B014344DA7ADB7B16499B0092005858CE
:1029800062443523494606F03BFA484600F0D8FF3A
:1029900009B0F0BCBB46B246A946A046F0BD5B1BE1
:1029A0009BB2984622000D00B7E70021FFF79AFE80
:1029B000B472EDE700233D0000229846ADE70648DB
:1029C000FDF774FFCC2A0020C42A0020FEFF00007F
:1029D00000010001842A0020186C01107047C046D5
:1029E000012800D97047054B8000002902D00A68F1
:1029F000C250F7E7024A1268C250F3E7C42A002027
:102A0000308C0110F8B5DE4657464E464546022347
:102A1000E0B5474E002534009B460027A37A022BE1
:102A200039D030D8002B22D08D235B009846414B03
:102A30009946414B9A46FEF717FAB37A80B2022BB9
:102A400041D04346F35C022B44D04B46F35C022B4F
:102A500049D05346F35C022B4ED05B46A372012350
:102A60002081E772280023736773FFF7FDFE0135AD
:102A70001134EDB2FF34042DD0D1F0BCBB46B246C8
:102A8000A946A046F8BD032B4FD12368002B13D1D4
:102A90000023A372EBE7237B013BDBB22373002B04
:102AA000E5D1637B0133DBB26373042B2AD023733C
:102AB0002800FFF7D9FEDAE7013B2360002BD6D1CF
:102AC0000023A372D3E733898342B4D04346F35C37
:102AD000022BBAD11733FF33F35A8342ABD04B46A4
:102AE000F35C022BB5D18A239B00F35A8342A2D018
:102AF0005346F35C022BB0D1CE239B00F35A8342A2
:102B0000ABD198E7E37A002B08D10C4A5268002A2F
:102B100004D001226373E2722273C9E70021280006
:102B2000FFF7E0FD0023A372A1E70548FDF7BEFE15
:102B3000CC2A00202A0200003A030000C42A002008
:102B40004C6C01100123F0B51E0000250640184210
:102B500005D0002953DD057801392D02013003220B
:102B600013000340104251D1072957DD07220839CD
:102B70000F0091430A0001000400083189182268FF
:102B80009A189A429B415B42D21863680834D31862
:102B90009342924152429B18A142F0D1F9084A1C3B
:102BA000D2008018C9001A04791A120C1B0C9B1849
:102BB000012910DD02889B188A1E012A05DD448840
:102BC0001B19052901DD81885B1851084C1C640024
:102BD00049000019511A012904D10278FE318D43B0
:102BE0001543ADB2ED182B0C2D042D0C5B19180CF0
:102BF0001B041B0CC018002E02D180B2F0BD0020B7
:102C0000030600041B0C000E1843F6E7012903DD40
:102C1000038802390230A7E70023DCE71A00C5E782
:102C2000F8B557464E46DE464546E0B591460A9A07
:102C30008A4611681B680A04120C090C5218190400
:102C4000090C52181B0C9B181A0C1B041B0CD318D4
:102C50001F0C1B041B0C0400FF18002825D00023A8
:102C60009B46FF3301269846658960682900FFF777
:102C700069FFC019070C0004000C3F182E4209D050
:102C80005B46414673403A069B463B0A120C0B409A
:102C90001A4317002468002CE6D15B46002B04D0B1
:102CA0003A063F04120C3F0E17435046FFF714FD3F
:102CB00004004846FFF710FD2318DB191A0C1B040B
:102CC0001B0CD318180C1B041B0CC018C04380B27B
:102CD000F0BCBB46B246A946A046F8BD10B582B0CE
:102CE000049C0094FFF79CFF02B010BD10B5FFF7E5
:102CF00029FFC04380B210BDF8B5CE464746040058
:102D000080B500282FD000239946FF3300270126E5
:102D10009846658960682900FFF714FFC019070C01
:102D20000004000C3F182E4209D04B464146734028
:102D30003A0699463B0A120C0B401A4317002468C6
:102D4000002CE6D14B46002B0AD038063B04000C81
:102D50001B0E1843C04380B2C0BCB946B046F8BD94
:102D6000F84380B2F8E70148F6E7C046FFFF0000ED
:102D70000322094BFA219343084A090113600022F8
:102D80001A71074A58181060012219600271054A29
:102D90005A50054A13607047FBCC0020F0CC00204D
:102DA000F4CC0020A00FA00F44330020F0B5D6468D
:102DB0004F464646C0B500285DD0830700D079E075
:102DC00003003E4A083B12689A4200D96CE03C4935
:102DD0000C300C68844267D31979002967D0FA2037
:102DE00019885E88000181420BD8864209D8981A5A
:102DF00080B2804690198246B04505D00088404593
:102E000002D03048FDF752FD5018844238D0458832
:102E10004545F6D100251D712B4DAC462D689D42D0
:102E200002D965462B601D009C4232D9834212D0E4
:102E30000779002F0FD184420DD0A84230D00188ED
:102E4000FA2019800001814205D044465018448080
:102E50005E889019824653450DD05046007900286F
:102E600009D1AB4218D053461980FA231B0199426D
:102E700001D052185680E0BCBA46B146A846F0BD13
:102E800000251D71104DAC462D68AB42C9D39C4244
:102E9000CED80E48FDF70AFD634650461860E2E7BB
:102EA00061461D000B60CAE70948FDF7FFFC0948B1
:102EB000FDF7FCFC0848FDF7F9FCC046F0CC00200B
:102EC000F4CC0020D46C011044330020086D0110B4
:102ED000906C0110AC6C01106C6C0110F8B5CE4612
:102EE0004746384ACB1C80B513400B2B3FD9FA22FA
:102EF000120193423ED899423CD8334A1668864222
:102F000056D8324A1268824252D90400083C2588B9
:102F1000A11B2A0089B2083A521A92B29A424AD3A5
:102F200021D07719BC463F79002F25D1FA22120112
:102F3000954243D062461288254D91460A000832D8
:102F40009B182F689BB2F21867452FD0002515718A
:102F50004D4651801580FA212380128809018A424A
:102F600001D0B2185380C0BCB946B046F8BD0C239E
:102F70009942C2D90020F6E71F001437BFB2BA4207
:102F8000F1D30A0008329B18FA229BB2984612012C
:102F9000954213D00E4FF2183B68934200D93A6025
:102FA00000274346177115805180D4E72A60CDE78A
:102FB0000848FDF77BFC0848FDF778FC0748FDF75B
:102FC00075FCC046FCFF0000F0CC0020F4CC0020D3
:102FD00044330020246D01103C6D01105C6D011024
:102FE000F8B5DE4657464E464546E0B500282ED099
:102FF0003D4BC61C1E40B3460B2E2FD9FA231B0196
:103000009E4224D8584522D8384BFA279A461B6846
:1030100059469946364B3F0118684B461B1A9AB2DF
:103020001B041B0C7F1ABB4211D20821494288465F
:10303000C41894462579C25A19001300002D04D1F2
:103040004646711A891859450BD29742F0D800208C
:10305000F0BCBB46B246A946A046F8BD0C239B4631
:10306000D0E75B461433994211D201235E462371A7
:103070000836204B1968A14520D0A619B1422CD39F
:1030800020000830A407E3D01B48FDF70FFC5E4684
:103090006346FA2708369B199BB23F01BB421FD0FB
:1030A000C1180A8062464A8001220D712380227174
:1030B0000A88BA42DDD082185380DAE7230004E0A0
:1030C0001B88C3181A79002A04D08B42F8D15346C2
:1030D0001960D2E752461360CFE70848FDF7E6FBD8
:1030E0000748FDF7E3FBC046FCFF00004433002027
:1030F000F0CC0020F4CC0020A06D0110706D011008
:103100005C6D011024230022F0B54746CE46904660
:103110009946033204249446124E80B5124B134F45
:10312000B144414632683960614603338B43002C19
:103130000BD015880021002200E003000132196045
:1031400058191900A242F8DB3B600436B14504D09F
:103150003268976853685488E3E7C0BCB946B04604
:10316000F0BDC0462889011084C40020ACCC0020EA
:1031700010B5082812D80C4B8000C458FDF7ACFAE3
:10318000A3681C68002C07D022681A60A30707D127
:10319000FDF7A4FA200010BDFDF7A0FA0024F9E71E
:1031A0000248FDF783FBC04628890110E46D011039
:1031B00070B50C0008280ED800290CD0084B8000F0
:1031C000C5588B0708D1FDF787FAAB681A682260EB
:1031D0001C60FDF783FA70BD0248FDF767FBC0462F
:1031E00028890110086E01100C2040427047C0462B
:1031F00070B5436816000A6804000D0082B09A4258
:1032000001D102B070BD3360300001A9019202F01B
:1032100083F8300001A905F091FE01A9300000F00B
:103220006BFE392329686160E25C343B1340052B57
:1032300005D0E369002BE4D020009847E1E700299E
:10324000F7D01207F5D52000211D07F0ADFFF0E7FC
:103250007047C046F0B54746CE4680B504000F0023
:103260009146984683B0002800D180E00B9B002B4C
:103270007DD0002900D18FE04B46002B00D188E0A3
:103280004346002B00D181E0474B002563610022BB
:10329000392320006560A560E56025860021E254A1
:1032A000283004220FF0A0F80A9B404E63623C23B2
:1032B0003278E5612562E2540C9B23613B68002B68
:1032C0005BD00021002000224B461B68984200D0B2
:1032D000A36043461B6899423CD1002A3DD02000A0
:1032E0000B9B9847002842D1314B9C461F683C23DA
:1032F000E55CFF2D18D03C20002F1AD0BC424FD0E7
:103300003B00FF2207E01B68002B12D09C4247D0F5
:10331000013A002A17D0195CA942F4D10135EDB267
:10332000FF2D13D02554E9E7E05400253C20002F61
:10333000E4D1FE2D32D00135EDB263462760200086
:1033400035701C6014E01B48FDF7B0FA002300251F
:103350002354D3E7E360002AC1D12000390001AA39
:10336000FFF746FF20000B9B98470028BCD00020A9
:1033700003B0C0BCB946B046F0BD3900200001AA78
:10338000FFF736FF0122A068E1689DE70A4B9846E7
:103390007AE7094B994673E7074F6DE70025CCE7BD
:1033A0000648FDF783FAC046E93100103BDE0020F5
:1033B000CCCC00203C6E0110308C0110286E011026
:1033C000F0B504000D0017001E0083B0002922D0C4
:1033D000002F23D0002E24D02B680022002B15D0E4
:1033E0003B68A1688B4200D0A3603368E1688B42E0
:1033F00003D1002A04D003B0F0BDE360002AFAD163
:103400006A4629002000FFF7F3FEF4E76268002A0D
:1034100009D10122E4E7164D002FDBD1144F002E15
:10342000DAD1134ED8E7684601A90193009201F062
:1034300073FF684601A905F081FD01A9684600F007
:103440005BFD39232A686260E15C343B0B40052B4D
:1034500007D1002A05D0090703D52000211D07F058
:10346000A3FEE369002BD4D0200098470122B7E7E0
:10347000308C011070B5041E16D04368002B17D194
:1034800039220121A35C194224D11D4B1A68A242A2
:103490002ED01C4A1368A34204D126E01A68A24227
:1034A00003D01300002BF9D170BD22681A60FBE72E
:1034B000051D0021280001F02FFF0021280005F044
:1034C0003DFD0021280000F017FD39220121A35CF9
:1034D0001942DAD018008843A0541B070BD4E369C3
:1034E000002BD2D020009847CFE723681360DBE79A
:1034F00000221A60CDE7200007F0B4FAEFE7C046DB
:10350000C8CC0020CCCC0020014B18607047C046CE
:10351000C8CC002070B5041E15D03925435DDA07EC
:1035200011D401221343DBB24355C269002A01D0F2
:103530009047635D05221A40052A04D16268002A7B
:1035400001D01B0700D470BD2000211D07F02CFE08
:10355000F9E7C04670B5041E03D03925435D5A070C
:1035600000D570BD04221343435506F0DFFB05234D
:10357000625D1340052B05D0236A002BF1D020009B
:103580009847EEE76368002BF6D01207F4D52000C9
:10359000211D07F009FEEFE710B500280AD03922F7
:1035A0000421835C194205D08B438354036A002BAA
:1035B00000D0984710BDC046021E0ED0084B1868B8
:1035C000002809D03C2102E00068002804D0435CB8
:1035D0000133DBB29342F7D170470020FCE7C046CD
:1035E000CCCC0020F8B505000026002826D00F27F7
:1035F0000BE0012B24D0002B2AD12800FFF7D6FBAB
:103600000136F6B2002C19D02500FDF765F8AC7B29
:10361000002C1AD0013CE4B2AC73FDF75FF8002C2B
:103620000CD12B7B2C683B40022BE2D129000820D7
:103630000136FFF7BDFDF6B2002CE5D13000F8BD34
:1036400029000720FFF7B4FDDAE70348FDF72EF95C
:103650000248FDF72BF9C0466C6E0110846E011014
:1036600010B5FDF739F80022084B1A70FDF736F84F
:10367000074B1868002803D107E0C068002804D071
:10368000436F002BF9D001F091FE10BD3DDE00200C
:10369000DCDD0020F0B5C1234F464646D6468046C5
:1036A000C0B50D00170004005B009A4250D0002204
:1036B0000C0491460C439F4208D83D00433BFF3B1E
:1036C0009D43012D24D03B48FDF7F0F8A0239B003B
:1036D0009F42F8D10300032703330335BB43BD43A7
:1036E0005B199BB21800103080B2AB422ED38542DA
:1036F0002CD8FFF775FC061E16D04B4603604346D8
:10370000C3181333BB4343602B4B8460C3600BE08F
:103710000720FFF72DFD061E06D04B468460036090
:10372000436007734373C5813000E0BCBA46B146BD
:10373000A846F0BDFCF7D0FF0122204B1A70FCF721
:10374000CDFF002E02D03000FFF74CFF0026EBE744
:10375000002398461A4B00269A46002303279946D1
:1037600007E04246ED1AADB21060002DDCD0804675
:1037700000240820FFF7FCFC0028DBD05246E31CA5
:10378000BB43D31A1A1C9BB2AB4200D92A1C494630
:10379000041993B2133442810A4ABC430160446065
:1037A0000581C260002EDCD1ED1AADB20600002DFD
:1037B000DDD1B9E7986E0110800001003DDE0020E8
:1037C000EC0500008200010070B5041E33D00289B0
:1037D0008A421BD98A1A07E0C91A238989B29B1821
:1037E00023812468002C20D063898B42F4D3227B70
:1037F0000D040D43120701D18B4208D12068A5604A
:10380000002801D0FFF7EEFE0023236070BD63683F
:1038100020001B1BC91889B2FFF760FB002807D0E6
:103820008442EBD00548FDF741F80548FDF73EF826
:103830000448FDF73BF80448FDF738F8006F011025
:10384000CC6E0110E46E0110B46E0110030070B56F
:1038500000281ED080225202914218D2002914D092
:1038600002898CB2A21892B2944210D8057B012032
:103870007F2D0BD95D68691A1D001035A94205D34B
:10388000596059891A8164185C81002070BD01203B
:10389000FCE70148FDF70AF81C6F011010B500287D
:1038A00015D080235B0299420FD200290BD04389A7
:1038B0008AB29A4209D89B1A4468438103896118E5
:1038C0009B1A41600381002010BD0120FCE70148E4
:1038D000FCF7ECFF1C6F011010B5002915DB002868
:1038E00029D000290FD003898AB2D3189BB29A42FB
:1038F0001FD84468611A047B7F2C16D84160418927
:10390000038152184281002010BD002813D0494283
:1039100043898CB29C420CD81B1B426843810389AB
:1039200052181B1B42600381EDE704001034A142D2
:10393000E4D20120E8E70148FCF7B8FF1C6F011052
:1039400010B5002802D0FFF74DFE10BD0148FCF76E
:10395000ADFFC0461C6F011003000020002B04D0F7
:103960001B68013080B2002BFAD1704710B5041EDD
:1039700009D0FCF7B1FEA37B0133A373FCF7AEFEC5
:10398000A37B002B00D010BD0148FCF78FFFC04681
:10399000286F011010B5002816D0002914D0026835
:1039A000002A01D111E01A0003890C891B19038137
:1039B00013681000002BF6D110895389834206D179
:1039C000088911601B18138110BD0200F4E701483B
:1039D000FCF76CFF3C6F011010B50C0000281FD0E5
:1039E00000291CD00368002B07D0028921895218B6
:1039F000028118001B68002BF7D10289438993428A
:103A000011D1228904609B180381FCF765FEA37B1A
:103A10000133A373FCF762FEA37B002B06D010BD1D
:103A20000029FCD0F1E70348FCF740FF0248FCF70F
:103A30003DFFC0463C6F0110286F0110F8B54746A6
:103A4000CE46060080B5884691461F00002900D169
:103A50008AE00B89934200D286E0002800D183E0FF
:103A60004B460289FB189A4200DA7DE000250EE001
:103A7000BA4242D0424612899A4236D0002E03D032
:103A8000728933899A4245D04B46002B5FD043461A
:103A900074895B89E41B5B1B9C4200D91C004C456C
:103AA00000D94C464346706859682200C01949192C
:103AB0000EF0A0FC4B463F192D1972891C1BA3B2B6
:103AC0009946BA4253D343465B89AB4252D3CFD1D6
:103AD00043461B689846002B28D0BA420CD0424679
:103AE0005B89128900259A42C8D143461B68002B86
:103AF000C4D0062040422BE000253668002E1ED0A0
:103B000043465A891B899A420AD000277289338911
:103B10009A42B9D13368002BB6D00620404217E054
:103B200043461B68002BE4D10027EFE74B46002BF0
:103B30001AD10025BA42A1D1002736689EE74B462C
:103B4000002B11D143465A891B899A4204D0002088
:103B5000C0BCB946B046F8BD43461868431E9841FC
:103B6000052340429843F3E710204042F0E7034822
:103B7000FCF79CFE0248FCF799FEC0466C6F0110F2
:103B8000846F011010B5002904D000230A89FFF7C3
:103B900055FF10BD10204042FBE7C046F0B5C646B9
:103BA000050088461700002600B5002826D0002909
:103BB00024D0002F05D121E02D681B1B9BB2002DC6
:103BC0001CD06C89002B01D0A342F5D2E41A221C30
:103BD000A4B2BC4200D93A1C94B2424669683F1B69
:103BE0009019C91822003619BFB20EF003FCB6B204
:103BF0002D68002F02D00023002DE2D1300080BCC0
:103C0000B846F0BDF8B5CE46474605008846914611
:103C100080B5002824D0002922D0038993421CD3E8
:103C200016000027002A02D112E0002D1BD06C895B
:103C3000B44200D9340043466868D91922000EF016
:103C4000D9FB361B2D683F19002EEED1B9450DD199
:103C50000020C0BCB946B046F8BD01204042F8E79C
:103C600010204042F5E70348FCF720FE0248FCF72D
:103C70001DFEC046A06F0110B86F0110F0B5D6460A
:103C80004F46464605008A46C0B5002805D146E0A5
:103C90002D68DB1B9BB2002D41D06F89BB42F7D250
:103CA000298998188146814239DB9F4240D968684A
:103CB000C018FB1A9A422EDD9BB21A005146984654
:103CC0000EF098FB4B46DF1BBBB29946002B1CD075
:103CD0002F68002F29D03B894B4520D34E46002426
:103CE00001E0002F1ED07D89B54200D93500434642
:103CF000191978682A0051440EF07CFB761B3F6846
:103D00006419002EEDD1A14515D10020E0BCBA46C2
:103D1000B146A846F0BD51460EF06CFBF5E7012018
:103D20004042F3E70548FCF7C1FD10204042EDE7B3
:103D30000348FCF7BBFD0348FCF7B8FDA06F01107A
:103D4000D06F0110B86F01100B0070B5150011890C
:103D50001A00FFF79FFC041E06D0002329002A89C1
:103D6000FFF76CFE002801D1200070BD0148FCF770
:103D70009DFDC046E86F011005E043898B4205D8E0
:103D8000C91A006889B20028F7D1704743685A54AD
:103D9000FBE7C046F0B5DE46454657464E468046F0
:103DA000E0B5514F83B03968786908F009FC4346A3
:103DB0005A684E4B557A1C689B46002C00D18EE009
:103DC000002843D13C2300269946844604E0E3685A
:103DD0002600002B32D01C00237CAB42F7D1217A85
:103DE000002906D048467B681B5C0133DBB2994250
:103DF000EDD12368002B02D079698B42E7D10121F4
:103E0000637C194203D061683B699942DFD16369E1
:103E10009A46002BDBD0019221004246A069344B28
:103E2000D047002850D143465A68019B934258D14D
:103E300002239C46E3682600002BCCD1604603B0E9
:103E4000F0BCBB46B246A946A046F0BD0020012307
:103E500000269A46019004E0E3682600002B31D04A
:103E60001C00237CAB42F7D1217A002908D07B6863
:103E70009C463C236046C35C0133DBB29942EBD1E4
:103E80002368002BE8D15146637C194203D0616856
:103E90003B699942E0D163699946002BDCD00192DD
:103EA00021004246A069124BC84700280CD1434666
:103EB0005A68019B9A4214D102230193E3682600B9
:103EC000002BCDD10198BAE7002E06D0E368F3604D
:103ED0005B461B68E3605B461C600120AFE7002087
:103EE000ADE70448FCF7E2FC28330020B4DC0020F6
:103EF00038330020FC6F011010B5002811D0026883
:103F0000002A0ED000290CD00B68002B09D0094BD9
:103F10001B68002B05D01C68944203D0DB68002B83
:103F2000F9D110BD0A681A60DB68002BF9D002686D
:103F3000F1E7C046B4DC00207047C04610B5041E4F
:103F400020D0037D042B03D0072B0AD0032B11D1E3
:103F5000200003F085FC0523002807D0431C0BD06C
:103F600010BD03F07DFC0028F8D109232000237543
:103F700003F086FF0020F3E70822638B0020134341
:103F80006383EDE70148FCF791FCC04648700110DF
:103F900070B50600806F002803D0FFF7D1FC002326
:103FA000B367746F002C18D06068256800280CD0A7
:103FB000FFF7C6FC21000420FFF7FAF8002D0AD015
:103FC0002C00606825680028F2D121000420FFF74A
:103FD000EFF8002DF4D1002373670123F46E5B42E8
:103FE0003386002C16D06068256800280CD0FFF7B7
:103FF000A7FC21000420FFF7DBF8002D0AD02C00DD
:10400000606825680028F2D121000420FFF7D0F86D
:10401000002DF4D1346F002C16D06068256800287C
:104020000CD0FFF78DFC21000420FFF7C1F8002D14
:104030000AD02C00606825680028F2D121000420F5
:10404000FFF7B6F8002DF4D100236822F36633673A
:10405000B35270BD10B5FCF707FF044A80049446C4
:10406000034B800C6044188010BDC04600C0FFFFA9
:10407000E011002010B5037D0100012B03D00220C8
:10408000FFF796F810BD0148FCF710FC54700110C2
:10409000F8B5031E1BD0048DC16A466A5D8E0F4FB2
:1040A000601A80192A1CBD420CD892B2821A07D518
:1040B000891B09D48022520291420BD200208CB27B
:1040C0005C85F8BD3A1CF0E700240020F8E70448BE
:1040D000FCF7ECFB0348FCF7E9FBC046D0160000F8
:1040E000687001108C700110F8B500281DD0037D98
:1040F000012B34D0048D1D4A61188BB293421BD919
:104100001300466A458E1A4FC46A0385B218291CEB
:10411000BD420BD889B20919511A11D5A41B1BD461
:1041200080235B029C421DD24485F8BD391C89B2B4
:104130000919511AF2D403E09C42E1D81A00E0E7D1
:1041400043850C4B121B9A42EFD90222438B134337
:10415000438303F095FEE8E700234385E5E706483F
:10416000FCF7A4FB0548FCF7A1FBC046A02D00000E
:10417000D0160000670B0000A87001108C700110B1
:10418000F8B54E46DE46574645460400E0B51E00EB
:10419000002800D1B7E0002900D1B4E0037D002B56
:1041A00000D0ADE00B6802834360007A002837D16D
:1041B000201D07F0BDFE002800D1A7E02368002BDA
:1041C00001D143682360E78A002F37D1514B9A46CB
:1041D0001D888023DB019C464F4B98464F4B9946E8
:1041E000102343449B460135ADB24D451BD0434699
:1041F0001A681268002A03D118E0D268002A15D084
:10420000D18AA942F9D16346013B9BB29C46002B5F
:10421000E9D153461D806346E38202256D4250E09A
:10422000FFF7CAF9C7E7C0252D02E0E704335B4575
:10423000DED15346E5821D80002DEED0384B394942
:104240001A68096852181A6000232265013A6264EC
:10425000A265E265344A6362A262344AE362603373
:10426000E252028E002A3AD0131C282A3CD386211F
:10427000283B1A1C9BB289008B4233D892B26286CB
:1042800048230122E252403302212000E65003F08D
:1042900073FB051E15D102232375002F05D0244A78
:1042A0001368A34218D1E3681360224B1A681C609C
:1042B000E26004F0F1F901221F4B20001A7003F0B4
:1042C000DFFD2800F0BCBB46B246A946A046F8BDBB
:1042D000DA68A24211D01300002BF9D1E5E786225B
:1042E0009200CCE70A1CC9E728238621283B1A1C28
:1042F0009BB289008B42C1D9F4E7E268DA60D4E767
:104300000A256D42DDE710256D42DAE704256D428E
:10431000D7E7C046E0110020B8890110FFFF000078
:10432000DC110020ECDD0020A02DA02DA02D000030
:10433000E0DD0020DCDD002040DE0020C14BF0B5D8
:104340004E469946DE46574645464A46E0B51B6806
:1043500089B001331360BC4A13780592013313709E
:10436000BA4B0793BA4B0693079B1C68002C00D1ED
:10437000C7E000239B4649E0012290460B2B00D862
:10438000E8E0062D00D10FE1637A1B0758D5042D14
:1043900000D0EEE14B461F68236AFA21FF1A9423EE
:1043A000E35849009A469823E6580433E05870438E
:1043B00050440DF051FC874200D8C3E1434601331D
:1043C000DBB298460123666F9A46002E00D1AAE11F
:1043D0004023E25E53009B185B00BB4241D9257D20
:1043E000032D5AD0092D00D1FDE04346002B00D00B
:1043F00099E1237F627F0133DBB2E56823779A423C
:1044000000D804E1A3462C00002C7AD0257D002D95
:1044100000D1EDE1012D00D1E7E10A2D00D1E1E16C
:10442000059BA27F1B789A4200D107E1A377422324
:10443000E35C022DA0D1052B00D88BE00123984628
:10444000666F002E00D17AE14B461F68236AFF1A7F
:1044500000239A464023E25E53009B185B00BB4258
:10446000BDD87068356800280CD0FFF769FA3100B4
:104470000420FEF79DFE002D0AD02E0070683568DE
:104480000028F2D131000420FEF792FE002DF4D175
:104490000023257D6367032DA4D14B46226A1B6848
:1044A0009B1A282B00D8A5E09023E6582000FFF7A0
:1044B0006FFD5A46079B1B68002A00D16DE19C42A4
:1044C00000D19EE1E368D3605346002B00D054E155
:1044D000237D2569E768012B00D18FE121000220AF
:1044E000FEF766FE0023069C2370002E07D00D21E8
:1044F00028004942B0472378002B00D034E73C1E07
:1045000084D1544E002431684D46002904D11AE06C
:104510000C00C968002916D00B7D0A2B00D06AE177
:104520002B680A6A9B1AF02BF2D93368002C00D151
:1045300040E1994200D167E1CF68E7600220FEF7D1
:1045400037FE391EE8D109B0F0BCBB46B246A946D9
:10455000A046F0BDA123E35C9846002B00D17DE08E
:10456000236F002B00D058E1E36E002B00D157E100
:10457000A223E35C0B2B00D90CE14246A021364B71
:10458000D25C635C934200D20DE16023E15A0029C2
:1045900019D1200003F070FF00281AD0257D0023D8
:1045A0009846062D00D0EFE6638BDB0600D5A9E028
:1045B000637A1B0700D543E7666F002E00D043E700
:1045C00000239A4611E7200003F070F8002800D17C
:1045D00001E1A0230022E254A132A35C062BDDD826
:1045E0000133A354DAE74B46226A1B689B1AF02B6F
:1045F00000D959E74346002B00D055E7237F627F5F
:104600000133DBB2E56823779A4200D9FAE600234A
:10461000069A237713708C33E358002B0AD02100BD
:1046200020699847069B1B78002B00D09CE6002849
:1046300000D0E7E6200003F023FCE3E6A346E468AD
:10464000E2E6C046ECDD002042DE0020DCDD00209A
:1046500040DE0020F0DD0020C78901103023E25E3B
:104660007149238E8B4202D801331AB2228640232D
:10467000E35E934200DD84E6200003F001FA257D2D
:10468000002807D0236F002B00D07AE6E36E002BC2
:1046900000D176E6022D16D03C22A35E3E21625E5A
:1046A000DB109B184222A15C60480A1C0C2900D92F
:1046B00087E0D2B2825C934080221202934200DBF8
:1046C0007DE04022A3520023482023866033E15A34
:1046D000255A628E0B1CA94200D92B1C9BB250009C
:1046E0005B0885B2191CAB4200D2011C4A23E1527F
:1046F000023BE252002222332000E25203F0EAFDA4
:10470000257D3EE64B461F68236AFF1A282F00D8F6
:1047100052E743460133DBB298460023666F9A4660
:10472000002E00D054E69023E658002D00D1C0E6BC
:104730000A2D00D1BDE6012D00D0B7E6B9E6002371
:104740009A464CE6A323E35CFA215E43300049001D
:1047500050440DF081FA874200D82DE7200003F085
:104760001DFE002800D06BE6A322A35C0133A354F6
:1047700066E6072D00D10DE662E6238B626A216DA5
:104780000293E38A20000193231D0093230003F08A
:1047900045FA9DE601239846F3E59C4237D1E3684C
:1047A000079A136090E60133DBB26354934200D260
:1047B000F5E6EAE699422DD1CF683760BEE61C4B9C
:1047C0007FE70C22D2B2825C934080221202934295
:1047D00000DA76E7F3E7200003F052FB002800D070
:1047E000F7E6DBE61348FCF761F81348FCF75EF8E0
:1047F0001248FCF75BF81248FCF758F81148FCF730
:1048000055F81148FCF752F81048FCF74FF81048DB
:10481000FCF74CF80F48FCF749F80F48FCF746F84E
:104820000E48FCF743F8C046FE7F0000D089011017
:10483000FF7F000028710110FC700110D070011082
:104840001872011054700110C071011048720110EB
:10485000EC71011070720110547101108871011017
:1048600070B5041E16D06068256800280CD0FFF7CC
:1048700067F821000420FEF79BFC002D0AD02C00D5
:10488000606825680028F2D121000420FEF790FC22
:10489000002DF4D170BDC04610B5041E08D040688C
:1048A000002801D0FFF74CF821000420FEF780FC1F
:1048B00010BDC04670B5051E0DD00420FEF758FC93
:1048C000041E06D0102229000DF094FD6068FFF749
:1048D0004DF8200070BD0148FBF7E8FF9872011009
:1048E000002800D00161704710B5002804D0037D76
:1048F000012B02D08423C15010BD0148FBF7D6FF25
:10490000B472011010B5002804D0037D012B02D031
:104910008023C15010BD0148FBF7C8FFDC720110B5
:1049200010B5002804D0037D012B02D09023C15084
:1049300010BD0148FBF7BAFF0473011010B5002841
:1049400005D0037D012B03D08C23C150427710BDCD
:104950000148FBF7ABFFC0462C73011010B50028CF
:1049600006D0037D012B03D90A2B01D0FFF710FBE2
:1049700010BDC04610B50C1E47D0002848D00368B3
:104980008B4204D12FE0DA68A24224D01300002B1E
:10499000F9D10023E360237D002B0FD1638BDA076D
:1049A00029D4E36E002B36D1236F002B36D1636FF1
:1049B000002B36D100232375E38210BD0A2BF0D0E3
:1049C000012BF7D02000FFF7E3FA237D0A2BE8D074
:1049D000012BEFD0E2E7E268DA600023E360237D99
:1049E000002BEBD1DAE7CB6803600023E360237D83
:1049F000002BE3D1D2E7022213436383200003F0AC
:104A00003FFA237D012BD5D0CBE70748FBF74EFFBC
:104A10000648FBF74BFF0648FBF748FF0548FBF746
:104A200045FF0548FBF742FF4C7301106873011006
:104A300088730110A0730110BC730110F0B54E46CD
:104A40004546DE465746E0B505000E0087B0002813
:104A500076D0037D012B00D1B0E00A2B00D19BE082
:104A6000026D9246426A05929022825893460269EC
:104A70009146C28A9046002B69D1002A6FD100234B
:104A8000002698462C6F002C16D0606827680028F6
:104A90000CD0FEF755FF21000420FEF789FB002F04
:104AA0000AD03C00606827680028F2D12100042069
:104AB000FEF77EFB002FF4D1EC6E002C16D0606860
:104AC000276800280CD0FEF73BFF21000420FEF7EA
:104AD0006FFB002F0AD03C00606827680028F2D1E5
:104AE00021000420FEF764FB002FF4D16C6F002C32
:104AF00016D06068276800280CD0FEF721FF21003F
:104B00000420FEF755FB002F0AD03C0060682768A0
:104B10000028F2D121000420FEF74AFB002FF4D137
:104B2000002E2CD12B7D012B45D029000220FEF731
:104B30003FFB5B46002B03D00D2148464942D84736
:104B400007B0F0BCBB46B246A946A046F0BD29005E
:104B50001C48FFF70FFF01221B4B1A7092E71B4AFC
:104B60001368834208D1C36813600023EB6086E7B3
:104B7000DA68AA421CD01300002BF9D1F5E72B8B81
:104B800051460293434601932B1D009328002B00AE
:104B9000059A03F043F8C5E729000D48FFF7EAFE40
:104BA0002B7D012B07D029000220FEF701FBC7E770
:104BB000EA68DA60D9E70748FBF778FE0648FBF7B2
:104BC00075FEC046DCDD002040DE0020E0DD002078
:104BD000F0DD002054700110D473011010B50121D4
:104BE000FFF72CFF10BDC046F0B5C646060000B565
:104BF0000220FEF7BDFA041E2AD0A42200212000C4
:104C00000DF0F2FB6423624A6675E252614B40226A
:104C1000A362FF23E372F93BA352E3875E4B443266
:104C200023635E4B1B6823625D4B1B78A3775D4B50
:104C3000A3645D4BA35094235C4AE2505C4A043366
:104C4000E25009220433E250200080BCB846F0BD97
:104C5000584B082798461D68002D0AD02800438B22
:104C6000ED681F42F8D0BB434383FFF767F9002D7F
:104C7000F4D1514B1B68002B11D00021474A10681A
:104C80001A6A821A914201D811001C00DB68002BBD
:104C9000F6D1002C03D001212000FFF7CFFE022027
:104CA000FEF766FA041EA8D143461B68002B16D0F7
:104CB0003A4A0021106802E0DB68002B09D01A7D17
:104CC000092AF9D11A6A821A9142F5D811001C00FA
:104CD000F2E7002C03D000212000FFF7AFFE0220F6
:104CE000FEF746FA041E00D087E743461B68002BF8
:104CF00016D02A4A0021106802E0DB68002B09D098
:104D00001A7D082AF9D11A6A821A9142F5D811003F
:104D10001C00F2E7002C03D000212000FFF78EFEDC
:104D20000220FEF725FA041E00D066E773B2002BBE
:104D30002BDB002E22D0320043461B68013AD2B250
:104D4000002B1BD015490F680021884607E0186A20
:104D50003A1A90461C000A00DB68002B08D0597DE7
:104D60008A42F4D8F8D1186A3D1AA845F4D8EFE77A
:104D7000002C03D001212000FFF760FE0220FEF787
:104D8000F7F9041E00D038E75EE77F22D4E7C0467B
:104D9000A02D0000A02DA02DFFFF1802ECDD0020AB
:104DA00042DE00200100A02D514F001000DD6D00FB
:104DB000F8240100DCDD0020F0DD002010B54020EB
:104DC000FFF712FF10BDC04630B5040085B00028C3
:104DD00000D19DE0037D002903D0042B1AD0072BBE
:104DE00018D0012B00D168E0022B4AD0002B5DD1F6
:104DF000E38A002B4FD04B4A1368A34205D184E0CD
:104E0000DA68A24200D17DE01300002BF8D1002324
:104E1000E36040E0A36F002B44D0638BDB0600D43B
:104E200079E0238B626A216D0293E38A200001936B
:104E3000231D0093230002F0F1FE237D012B04D9F2
:104E40000A2B02D02000FFF7A3F8374A1368A342C9
:104E500014D1E368136000230122E360334B1A701E
:104E6000334B1B68A34225D0237D012B13D131483E
:104E7000FBF71CFDDA68A24241D01300002BF9D1E8
:104E8000E9E721002848FFF775FD0122274B1A703A
:104E9000237D012BEBD021000220FEF789F90020B1
:104EA00005B030BD244B228D9A42B6D12000FFF7C9
:104EB00045F8F5E702F07EF8F1E7204900200D0003
:104EC0000C354B681B68002B05D0DA6F944211D06B
:104ED000DB68002BF9D104318D42F2D12100184852
:104EE000FFF748FD237D012B18D021000320FEF79A
:104EF0005FF9D4E7D867DB68002BE6D1EBE7E2681F
:104F0000DA60A8E7E268DA6081E7E36813607EE7C9
:104F10000C48FBF7CBFC0C48FBF7C8FC0B48FBF735
:104F2000C5FCC046E0DD0020DCDD002040DE0020C6
:104F3000E4DD002054700110A02D0000B88901109C
:104F4000E8DD002008740110287401104474011079
:104F5000F0B5C6460800140000B500294AD0002A62
:104F60002CD013890A7D012A47D0098D264A5B1867
:104F70009BB293421ED913009046476A468E234A3D
:104F8000C56A0385B844311C964200D9111C4246BB
:104F900089B24919511A21D5ED1B1CD480235B021B
:104FA0009D422DD245852000FEF7CAFC002080BC22
:104FB000B846F0BD9942DED81A00DDE7002BF5D1E6
:104FC0000B7D012B03D010224B8B13434B8301210C
:104FD000FFF7FAFEEBE700234385E4E743850C4B3C
:104FE000521B9A42DFD90222438B1343438302F0C0
:104FF00047FFD8E710204042D9E70648FBF756FCA8
:105000000548FBF753FCC046A02D0000D016000059
:10501000670B0000A87001108C700110F8B5041E19
:1050200032D00023866F777B83678433C558002D89
:105030000CD00023320021000069A84700280BD0C3
:105040000D301ED00520A6674042F8BD3189FFF71C
:105050004BF83000FEF774FCBF0610D5238D0C4AC8
:10506000934201D0013323858423E558002D06D0D7
:105070000023002221002069A8470D3001D0002024
:10508000E3E70D204042E0E710204042DDE7C04664
:10509000A02D0000F0B54F464646D646C0B5204D7F
:1050A000204F2B7801332B701F4B994601239846D4
:1050B0004B461C68002C1BD008262B78A27F9A42F6
:1050C0001BD04246A377638B1A421ED11E4216D1D3
:1050D000E3689A46A36F002B07D0002320003B70A3
:1050E000FFF79CFF3B78002BE2D15446002CE4D123
:1050F000E0BCBA46B146A846F0BDE468F6E7B34363
:1051000020006383FEF71AFFE2E702221343638362
:10511000200002F0B5FE0322638B93436383D5E73F
:1051200042DE002040DE0020DCDD002010B5FFF76D
:10513000B1FF054A13780133DBB21370DB0700D4EB
:1051400010BDFFF7FBF8FBE741DE002030B504009F
:1051500085B0002800D198E0037D012B00D16FE0DD
:105160001021428B0A434283042B36D1A36F002BBC
:105170004BD0238B626A216D0293E38A2000019356
:10518000231D0093230002F049FD237D012B04D948
:105190000A2B02D02000FEF7FBFE3F4A13689C4218
:1051A00018D1E368136000230122E3603B4B1A70BF
:1051B0003B4B1B689C4230D0237D012B3AD0210011
:1051C0000220FDF7F5FF002005B030BDDA689442FB
:1051D00033D01300002BF9D1E5E7072BC6D0022B03
:1051E0001ED016D8C38A002BE9D02E4A13689842E5
:1051F00008D1C36813600023E360E0E7DA689442F3
:1052000040D01300002BF9D1F5E7274B228D9A42AD
:10521000AFD12000FEF792FED6E701F0CBFED2E739
:1052200021001D48FFF7A6FB01221C4B1A70237DAD
:10523000012BC4D11D48FBF739FBE268DA60B2E705
:105240001B4900200D000C354B681B68002B05D056
:10525000DA6F944211D0DB68002BF9D10431A942F6
:10526000F2D121001348FFF785FB237D012B0FD0DE
:1052700021000320FDF79CFFA5E7D867DB68002B22
:10528000E6D1EBE7E268DA60B5E7102040429BE741
:105290000948FBF70BFBC046DCDD002040DE0020A8
:1052A000E4DD0020E0DD0020A02D0000547001109E
:1052B000B8890110E8DD00204474011010B5002801
:1052C00006D0054B054A186812688018186010BD92
:1052D0000348FBF7EBFAC046DC110020ECDD0020B0
:1052E0006074011010B5002A10D000290DD00A8E6C
:1052F000002A0AD0131C282A00D22823283B1A1C73
:105300009BB2834200D9021C90B210BD0148FBF74A
:10531000CDFAC0467C74011070B505000E0000285F
:1053200002D00368002B00D170BD1D4A1068002810
:1053300004D10CE0002C0AD020002B680268C4685D
:105340009342F7D10121FFF779FB002CF4D1154BE3
:105350001C68002C0AD022682B682000E4689A425E
:10536000F7D10121FFF76AFB002CF4D1002EDBD02E
:105370003368002BD8D00C4B1A68002AD4D02B6885
:105380001168994205D0D268002ACDD0116899429F
:10539000F9D133681360D268002AF0D1C4E7C0465F
:1053A000DCDD0020E0DD0020E8DD002070B5446F8A
:1053B0000600002C18D06068256800280CD0FEF785
:1053C000BFFA21000420FDF7F3FE002D0AD02C00C7
:1053D000606825680028F2D121000420FDF7E8FE6E
:1053E000002DF4D10023736770BDC046F0B5C646EA
:1053F00000B5002800D1C4E0634B1D88002D31D0DA
:10540000624B9C46002362461380614B1F68614BD0
:105410001C88002F00D16FE05F49002300228846DE
:105420001600954200D8A2E0531CB1B29BB28C4248
:105430001BD8191B0139C9B2795C01291BD002297B
:105440001DD000290CD09C424DD953490968CB1876
:105450001B7D012B00D890E09A1892B20123DFE760
:105460006246138080BCB846F0BD41460968891980
:10547000097D0129E3D11A0001360123D1E7911CEE
:1054800089B29C4221D9444E3668F3181B7D042B07
:1054900020D14B1CAB421DDAD31C04329BB292B21A
:1054A0008C421AD8091BC9B27E5C36029C421ED8B7
:1054B0001B1BDBB2FB5C3343591E384E89B2B14231
:1054C00000D9374B43860123AAE71B1BDBB2FB5CE9
:1054D000042BDED063461980C4E72F4E366871185E
:1054E0000E7D3602E2E71B1BDBB2FB5CB1E72A490B
:1054F0000968CB181B7DDEE7274B00221E680023BE
:1055000014001434954232D9315D531C9BB20129E9
:1055100026D0022909D00029A2D0F3181B7D012B27
:105520002BD99A1892B20123EAE7F3181B7D911C3C
:1055300089B2042BCED14B1CAB42CBDAD41C7118F0
:10554000A4B20B7D3419217D1B020B43591E134C51
:10555000043289B292B2A14206D843860123CFE732
:105560001A0001340123CDE70D4B4386F6E7002BEB
:1055700000D177E763461A8074E7634602321A80E7
:1055800070E70848FBF792F92ADE002026DE0020AB
:10559000F8DD002028DE0020F4DD0020B305000047
:1055A000B4050000A4740110F0B5D6464F46464637
:1055B00005000C00C0B500285CD0C368587B1A7B7E
:1055C00000021043FDF788F8C0074FD401239A4624
:1055D000FE339846294E3268E36894465A79197921
:1055E00012020A439979288909041143DA79278933
:1055F000120660440A43811AC91B2DD4587B1A7BBA
:1056000000021043FDF768F85346034207D12768AC
:105610002000FFF741F9002F17D03C00DBE7EB68D3
:10562000587B1F7B000207430120FDF755F84146D8
:105630003843EA6883B2276808401B0A1073537323
:105640002000FFF729F9002FE7D100242C60E0BCEF
:10565000BA46B146A846F0BD101AF7D56346D21A2D
:1056600091B268682981FEF7AFF8EFE72000FFF7F5
:10567000F7F8EAE70248FBF719F9C046C8DC002052
:10568000C0740110F0B55746DE464E464546E0B5BB
:1056900083B007000C1E019246D02D4B9B4666231B
:1056A00098462C4B9A465B46E1681D684A790B790F
:1056B00012021A438B79C8791B041343000618435E
:1056C000FDF70EF8238906009946E368AD1B587B69
:1056D0001A7B00021043FCF7FFFF4B46ED1A032331
:1056E0001840431E98412D1A2AD460682568FEF799
:1056F00033F94346FB5A984227D842461B1ABB52FD
:1057000052462389128820009B1852461380FFF7C7
:10571000C3F84346FB5A002B0ED0002D01D02C00BD
:10572000C1E7019B002B0DD0002003B0F0BCBB46AD
:10573000B246A946A046F0BD002DF5D02C00B2E738
:105740002000F2E70448FBF7B1F80448FBF7AEF895
:10575000141E002024DE002010750110E8740110D2
:10576000F0B5DE4657464E464546E0B5017D04009D
:1057700083B0032901D800F0B0FCA64B1A6801934E
:10578000A54B1B78DB064ED4A44B984643461F8896
:10579000019B1A68002F00D18DE0217D636A0629E4
:1057A00000D989E0991AD01A4D1E00D546E1461E4F
:1057B000FE4200D542E19A4D6868002801D100F010
:1057C000B9FC984B994201D900F0B1FC028989B229
:1057D0008A4201D200F0A8FC2B89521A5B1A2B8155
:1057E000438992B2994208D9002747810281006813
:1057F000C91A438989B28B42F7D3FEF74FF8636A1F
:10580000019A190A1360EA68517119021371090E9D
:105810001B0E9171D371238D002B00D058E2200014
:1058200002F008FB4FE06023C35A7F4D9946836D19
:105830009A46436D28689F1A54D493424FD04B46E2
:10584000D346824500D1A9E1666CB446371A5DD4CF
:10585000724E3788B046002F00D1CFE0636B002B2B
:105860009CD0A26B121A91D598B2704A3C23E15E8B
:105870001788CA1092B2BB1A1B1A9BB259180DB2E4
:1058800019B2A587002902DAD21B83189BB23E22E7
:10589000A15EED108A10891A40225B189BB2E38743
:1058A0005B19A3520023636343461F88019B1A6858
:1058B000002F00D071E7636AD11A0BD4218D013B10
:1058C000CB189B1A06D403B0F0BCBB46B246A9461F
:1058D000A046F0BD0222638B13436383F3E7534674
:1058E0001B1AACD5524B1B689F7BDB7B1B023B43D7
:1058F0006027E3530237E65B9E4200D2E353666CB7
:105900008346B4466265A065371AA1D5F343C34206
:1059100000D54EE1236D1B1A00D54AE14A23E75A10
:10592000463B1900628B11408846134200D069E162
:10593000E68F4433B1464026E35A9A463C21635EE3
:105940004146DB104B44A35363460236C31AA153AE
:105950009BB26064BA4501D300F0DEFB80200001F9
:10596000024050424241608E01325043021C80B2DC
:10597000984200D91A1C130053449BB2534500D2DD
:105980007DE14822A352E26E216F2000FFF77AFEEC
:10599000E16E020020672000FFF774FE276FE066CB
:1059A0007B427B415B42238600232377002800D182
:1059B0006AE164211F4A635A12889B186352638B01
:1059C0001A0500D4F8E0002F00D1BCE2F9684A794A
:1059D0000B7912021A438B79C8791B041343000612
:1059E0001843FCF77DFEE36CC01A00D5E4E0638B3E
:1059F000114A13406383094B9846DFE049465B44F4
:105A000051448B4200D1E4E0636B002B00D028E7C7
:105A1000636A51E7C8DC002037DE00202CDE00205E
:105A200018330020FEFF0000141E0020ECDD0020D3
:105A3000F4DD002024DE0020FFF7FFFF002800DA5D
:105A4000C2E0218DE94200D5E9E69A4200D168E33F
:105A5000676F002F00D17BE2F868437901791B0260
:105A60000B43817909041943C3791B060B43934205
:105A700000D10CE1551EAC46D11A00D5ABE23D6811
:105A8000002D29D0E868437901791B020B43817905
:105A900009041943C3791B060B43934200D1F8E074
:105AA000F9688A460979894651464E46497909027C
:105AB0000E435146897909040E435146C9790906B6
:105AC00031436646711A03D4991A012900D4B6E00D
:105AD0002F003D68002DD5D19B1A00D49FE6037B93
